:020000040800F2
:10000000000002201D780008D1740008D97400088F
:10001000E1740008E9740008F174000800000000B1
:10002000000000000000000000000000F97400085B
:10003000077500080000000015750008237500080A
:100040006D7800086D7800086D7800086D780008FC
:100050006D7800086D7800086D7800086D780008EC
:100060006D7800086D7800086D780008317500081B
:10007000457500086D780008597500086D7800080E
:100080006D750008817500086D7800086D780008AE
:10009000957500086D7800086D7800086D78000887
:1000A0006D780008A97500086D7800086D78000863
:1000B000BD7500086D7800086D7800086D7800083F
:1000C0006D7800086D7800086D7800086D7800087C
:1000D0006D780008D1750008E97500080176000800
:1000E0006D7800086D7800086D78000815760008B6
:1000F000297600086D7800086D7800083D760008C4
:100100006D7800086D780008517600086D78000859
:100110006D78000865760008797600088D7600080D
:100120006D780008A1760008B57600086D780008A3
:100130006D78000800000000000000006D780008E5
:100140006D780008C97600086D7800086D780008A1
:100150006D7800086D7800086D780008DD7600087D
:100160006D7800086D7800086D7800086D780008DB
:100170006D7800086D7800080000000000000000A5
:080180006D7800086D7800089D
:1001900010B5054C237833B9044B13B10448AFF3C1
:1001A00000800123237010BD7000002000000000BB
:1001B0008406010808B5034B1BB103490348AFF39C
:1001C000008008BD000000007400002084060108C3
:1001D00081F0004102E000BF83F0004330B54FEAF8
:1001E00041044FEA430594EA050F08BF90EA020F65
:1001F0001FBF54EA000C55EA020C7FEA645C7FEAF8
:10020000655C00F0E2804FEA5454D4EB5555B8BF1A
:100210006D420CDD2C4480EA020281EA030382EA8B
:10022000000083EA010180EA020281EA0303362D1D
:1002300088BF30BD11F0004F4FEA01314FF4801CF0
:100240004CEA113102D0404261EB410113F0004F02
:100250004FEA03334CEA133302D0524263EB4303B9
:1002600094EA050F00F0A780A4F10104D5F1200E57
:100270000DDB02FA0EFC22FA05F2801841F10001B2
:1002800003FA0EF2801843FA05F359410EE0A5F186
:1002900020050EF1200E012A03FA0EFC28BF4CF0B7
:1002A000020C43FA05F3C01851EBE37101F000456D
:1002B00007D54FF0000EDCF1000C7EEB00006EEB7A
:1002C0000101B1F5801F1BD3B1F5001F0CD3490804
:1002D0005FEA30004FEA3C0C04F101044FEA44525B
:1002E00012F5800F80F09A80BCF1004F08BF5FEAE2
:1002F000500C50F1000041EB045141EA050130BDC2
:100300005FEA4C0C404141EB0101013C28BFB1F5D3
:10031000801FE9D291F0000F04BF01460020B1FA1E
:1003200081F308BF2033A3F10B03B3F120020CDAF1
:100330000C3208DD02F1140CC2F10C0201FA0CF0CF
:1003400021FA02F10CE002F11402D8BFC2F1200C34
:1003500001FA02F120FA0CFCDCBF41EA0C019040EA
:10036000E41AA2BF01EB0451294330BD6FEA040433
:100370001F3C1CDA0C340EDC04F11404C4F120021E
:1003800020FA04F001FA02F340EA030021FA04F330
:1003900045EA030130BDC4F10C04C4F1200220FA87
:1003A00002F001FA04F340EA0300294630BD21FAC5
:1003B00004F0294630BD94F0000F83F4801306BF8B
:1003C00081F480110134013D4EE77FEA645C18BF7F
:1003D0007FEA655C29D094EA050F08BF90EA020F16
:1003E00005D054EA000C04BF1946104630BD91EA0E
:1003F000030F1EBF0021002030BD5FEA545C05D111
:100400004000494128BF41F0004130BD14F580044F
:100410003CBF01F5801130BD01F0004545F0FE41C3
:1004200041F470014FF0000030BD7FEA645C1ABFF8
:10043000194610467FEA655C1CBF0B46024650EA2F
:10044000013406BF52EA033591EA030F41F400215B
:1004500030BD00BF90F0000F04BF0021704730B5E1
:100460004FF4806404F132044FF000054FF00001B6
:1004700050E700BF90F0000F04BF0021704730B577
:100480004FF4806404F1320410F0004548BF40424C
:100490004FF000013EE700BF42004FEAE2014FEAA1
:1004A00031014FEA02701FBF12F07F4393F07F4F7C
:1004B00081F06051704732F07F4208BF704793F07F
:1004C0007F4F04BF41F40021704730B54FF4607492
:1004D00001F0004521F000411CE700BF50EA010295
:1004E00008BF704730B54FF000050AE050EA01023E
:1004F00008BF704730B511F0004502D5404261EBAE
:1005000041014FF4806404F132045FEA915C3FF4EE
:10051000D8AE4FF003025FEADC0C18BF03325FEA8B
:10052000DC0C18BF033202EBDC02C2F1200300FA3C
:1005300003FC20FA02F001FA03FE40EA0E0021FA61
:1005400002F11444BDE600BF70B54FF0FF0C4CF44F
:10055000E06C1CEA11541DBF1CEA135594EA0C0F01
:1005600095EA0C0F00F0DEF82C4481EA030621EA3C
:100570004C5123EA4C5350EA013518BF52EA033577
:1005800041F4801143F4801338D0A0FB02CE4FF029
:100590000005E1FB02E506F00042E0FB03E54FF059
:1005A0000006E1FB03569CF0000F18BF4EF0010E51
:1005B000A4F1FF04B6F5007F64F5407404D25FEA4D
:1005C0004E0E6D4146EB060642EAC62141EA555100
:1005D0004FEAC52040EA5E504FEACE2EB4F1FD0C42
:1005E00088BFBCF5E06F1ED8BEF1004F08BF5FEAC0
:1005F000500E50F1000041EB045170BD06F0004672
:1006000046EA010140EA020081EA0301B4EB5C041E
:10061000C2BFD4EB0C0541EA045170BD41F4801116
:100620004FF0000E013C00F3AB8014F1360FDEBF3B
:10063000002001F0004170BDC4F10004203C35DA17
:100640000C341BDC04F11404C4F1200500FA05F39A
:1006500020FA04F001FA05F240EA020001F000423B
:1006600021F0004110EBD37021FA04F642EB0601B1
:100670005EEA430E08BF20EAD37070BDC4F10C04DB
:10068000C4F1200500FA04F320FA05F001FA04F29F
:1006900040EA020001F0004110EBD37041F100018B
:1006A0005EEA430E08BF20EAD37070BDC4F1200596
:1006B00000FA05F24EEA020E20FA04F301FA05F2FE
:1006C00043EA020321FA04F001F0004121FA04F2A6
:1006D00020EA020000EBD3705EEA430E08BF20EA76
:1006E000D37070BD94F0000F0FD101F000464000B0
:1006F00041EB010111F4801F08BF013CF7D041EA32
:10070000060195F0000F18BF704703F00046520035
:1007100043EB030313F4801F08BF013DF7D043EA06
:100720000603704794EA0C0F0CEA135518BF95EABC
:100730000C0F0CD050EA410618BF52EA4306D1D143
:1007400081EA030101F000414FF0000070BD50EA62
:10075000410606BF1046194652EA430619D094EAEC
:100760000C0F02D150EA013613D195EA0C0F05D1D6
:1007700052EA03361CBF104619460AD181EA03012A
:1007800001F0004141F0FE4141F470014FF00000E2
:1007900070BD41F0FE4141F4780170BD70B54FF07D
:1007A000FF0C4CF4E06C1CEA11541DBF1CEA1355FD
:1007B00094EA0C0F95EA0C0F00F0A7F8A4EB0504DF
:1007C00081EA030E52EA03354FEA013100F08880D6
:1007D0004FEA03334FF0805545EA131343EA12639F
:1007E0004FEA022245EA111545EA10654FEA002654
:1007F0000EF000419D4208BF964244F1FD0404F50D
:10080000407402D25B084FEA3202B61A65EB030568
:100810005B084FEA32024FF480104FF4002CB6EB25
:10082000020E75EB030E22BFB61A754640EA0C00A5
:100830005B084FEA3202B6EB020E75EB030E22BFE5
:10084000B61A754640EA5C005B084FEA3202B6EB26
:10085000020E75EB030E22BFB61A754640EA9C00E5
:100860005B084FEA3202B6EB020E75EB030E22BFB5
:10087000B61A754640EADC0055EA060E18D04FEA73
:10088000051545EA16754FEA06164FEAC30343EA13
:1008900052734FEAC2025FEA1C1CC0D111F4801FE0
:1008A0000BD141EA00014FF000004FF0004CB6E7D9
:1008B00011F4801F04BF01430020B4F1FD0C88BF78
:1008C000BCF5E06F3FF6AFAEB5EB030C04BFB6EB83
:1008D000020C5FEA500C50F1000041EB045170BD76
:1008E0000EF0004E4EEA113114EB5C04C2BFD4EBA3
:1008F0000C0541EA045170BD41F480114FF0000E27
:10090000013C90E645EA060E8DE60CEA135594EAA2
:100910000C0F08BF95EA0C0F3FF43BAF94EA0C0FA5
:100920000AD150EA01347FF434AF95EA0C0F7FF41A
:1009300025AF104619462CE795EA0C0F06D152EA6E
:1009400003353FF4FDAE1046194622E750EA410652
:1009500018BF52EA43067FF4C5AE50EA41047FF463
:100960000DAF52EA43057FF4EBAE12E74FF0FF3CC8
:1009700006E000BF4FF0010C02E000BF4FF0010C99
:100980004DF804CD4FEA410C7FEA6C5C4FEA430C12
:1009900018BF7FEA6C5C1BD001B050EA410C0CBF61
:1009A00052EA430C91EA030F02BF90EA020F0020C3
:1009B000704710F1000F91EA030F58BF994208BF2A
:1009C00090422CBFD8176FEAE37040F001007047E7
:1009D0004FEA410C7FEA6C5C02D150EA013C07D13E
:1009E0004FEA430C7FEA6C5CD6D152EA033CD3D089
:1009F0005DF8040B704700BF8446104662468C4683
:100A00001946634600E000BF01B5FFF7B7FF0028B5
:100A100048BF10F1000F01BD4DF808EDFFF7F4FFDE
:100A20000CBF012000205DF808FB00BF4DF808ED69
:100A3000FFF7EAFF34BF012000205DF808FB00BF8C
:100A40004DF808EDFFF7E0FF94BF012000205DF8AE
:100A500008FB00BF4DF808EDFFF7CEFF94BF012063
:100A600000205DF808FB00BF4DF808EDFFF7C4FF5C
:100A700034BF012000205DF808FB00BF4FEA4102AF
:100A8000B2F1E04324BFB3F5001CDCF1FE5C0DD9EC
:100A900001F0004C4FEAC0024CEA5070B2F1004F36
:100AA00040EB830008BF20F00100704711F0804F39
:100AB00021D113F13872BCBF01F00040704741F4FE
:100AC00080114FEA5252C2F11802C2F1200C10FA02
:100AD0000CF320FA02F018BF40F001004FEAC123E6
:100AE0004FEAD32303FA0CFC40EA0C0023FA02F38A
:100AF0004FEA4303CCE77FEA625307D150EA013360
:100B00001EBF4FF0FE4040F44000704701F000402F
:100B100040F0FE4040F40000704700BF53B94AB9AE
:100B2000002908BF00281CBF4FF0FF314FF0FF30F5
:100B300000F088B9ADF1080C6DE904CE00F006F8BC
:100B4000DDF804E0DDE9022304B070472DE9F04749
:100B5000089D0F4604468C46002B48D18A42164613
:100B600061D9B2FA82F34BB1C3F1200201FA03FC5E
:100B700020FA02F29E4042EA0C0C9C404FEA164ECC
:100B8000B7B2BCFBFEF1220C0EFB11CC42EA0C42C8
:100B900001FB07F0904209D9B21801F1FF3C80F047
:100BA000EE80904240F2EB8002393244121AA4B235
:100BB000B2FBFEF00EFB102244EA024400FB07F7F2
:100BC000A74209D9341900F1FF3280F0DA80A74238
:100BD00040F2D7803444023840EA0140E41B00214F
:100BE0001DB1DC400023C5E90043BDE8F0878B421E
:100BF00006D90DB1C5E9000100210846BDE8F0871E
:100C0000B3FA83F1002948D1BB4202D3824200F2F9
:100C10000781841A67EB030201209446002DE4D07B
:100C2000C5E9004CE1E7002A00F09280B2FA82F3B5
:100C3000002B40F0A8808A1A4FEA164E1FFA86FC55
:100C40000121200CB2FBFEF70EFB172240EA024204
:100C50000CFB07F0904207D9B21807F1FF3802D217
:100C6000904200F2E2804746121AA4B2B2FBFEF0B4
:100C70000EFB102244EA02440CFB00FCA44507D9F9
:100C8000341900F1FF3202D2A44500F2CB801046A5
:100C9000A4EB0C0440EA0740A2E7C1F120068B4018
:100CA00022FA06FC4CEA030C07FA01F420FA06F3D8
:100CB000F7404FEA1C49234300FA01F81FFA8CFE63
:100CC000B7FBF9F01C0C09FB107744EA074400FB62
:100CD0000EF7A74202FA01F20AD91CEB040400F154
:100CE000FF3A80F09B80A74240F29880023864442B
:100CF000E41B9FB2B4FBF9F309FB134447EA044435
:100D000003FB0EFEA64509D91CEB040403F1FF37D3
:100D100080F08280A6457FD9023B644443EA0040CC
:100D2000A4EB0E04A0FB02E7BC427346B94663D3B2
:100D300060D05DB1B8EB030264EB090404FA06F677
:100D400022FA01F31E43CC40C5E9006400214CE7C0
:100D50006208480842EAC1710B0C43EA00438AB2B8
:100D600042EA0342B3FBF6F1E407B4463746B6461F
:100D70001F23B0FBF6F0D21B41EA004161E7614658
:100D800014E7104628E7C3F1200120FA01F29E4043
:100D900027FA01F19F403A434FEA164E1FFA86FCAC
:100DA000B1FBFEF70EFB1710110C41EA004107FBE7
:100DB0000CF8884504FA03F43AD9711807F1FF30AA
:100DC00001D288451FD8A1EB0801B1FBFEF808FB52
:100DD0000CF70EFB181192B242EA0142BA422FD22E
:100DE000B21808F1FF31C6D2BA42C4D2A8F102014A
:100DF0003244C0E7F0459CD2BEEB020367EB0C0720
:100E00000138B94695E7A6EB08084144B81EB1FB86
:100E1000FEF808FB0CF7DCE73B467FE7504667E748
:100E20000846FBE63444023832E7023F32441BE70F
:100E3000A1EB08013846B1FBFEF808FB0CF7C8E748
:100E4000414698E7704700BF000000000000000026
:100E500001F0FF01102A2BDB10F0070F08D010F86B
:100E6000013B013A8B422DD010F0070F42B3F6D16F
:100E7000F0B441EA012141EA014122F007047FF088
:100E800000070023F0E80256083C85EA010586EADF
:100E9000010685FA47F5A3FA87F586FA47F6A5FA1B
:100EA00087F68EB9EED1F0BC01F0FF0102F0070227
:100EB00032B110F8013B013A83EA010313B1F8D1D2
:100EC0000020704701387047002D06BF35460338B3
:100ED000073815F0010F07D1013015F4807F02BFEC
:100EE000013015F4C03F0130F0BC0138704700BF3D
:100EF00080B400AF064BD3F88830054A43F4700342
:100F0000C2F8883000BFBD465DF8047B704700BF63
:100F100000ED00E080B584B000AF78607B68002B06
:100F200001D10123EDE07B6893F82030DBB2002B88
:100F300002D1786805F0D8FA7B681B681A687B686C
:100F40001B6842F001021A6002F0FAF9F86012E040
:100F500002F0F6F90246FB68D31A0A2B0BD97B681C
:100F60005B6A43F400327B685A627B68052283F82F
:100F700020200123C5E07B681B685B6803F0010348
:100F8000002BE5D07B681B681A687B681B6822F021
:100F900002021A6002F0D4F9F86012E002F0D0F90F
:100FA0000246FB68D31A0A2B0BD97B685B6A43F4B1
:100FB00000327B685A627B68052283F82020012377
:100FC0009FE07B681B685B6803F00203002BE5D1A0
:100FD0007B681B7E012B08D17B681B681A687B68C5
:100FE0001B6842F080021A6007E07B681B681A6881
:100FF0007B681B6822F080021A607B685B7E012B95
:1010000008D17B681B681A687B681B6842F0400245
:101010001A6007E07B681B681A687B681B6822F00F
:1010200040021A607B689B7E012B08D17B681B689D
:101030001A687B681B6842F020021A6007E07B6830
:101040001B681A687B681B6822F020021A607B68A4
:10105000DB7E012B08D17B681B681A687B681B68E4
:1010600022F010021A6007E07B681B681A687B6830
:101070001B6842F010021A607B681B7F012B08D1AD
:101080007B681B681A687B681B6842F008021A605C
:1010900007E07B681B681A687B681B6822F00802FF
:1010A0001A607B685B7F012B08D17B681B681A681C
:1010B0007B681B6842F004021A6007E07B681B68CB
:1010C0001A687B681B6822F004021A607B689A68C1
:1010D0007B68DB681A437B681B691A437B685B6922
:1010E00042EA03017B685B685A1E7B681B680A43FF
:1010F000DA617B6800225A627B68012283F8202033
:10110000002318461037BD4680BD000080B487B06C
:1011100000AF786039607B6893F82030FB75FB7D09
:10112000012B03D0FB7D022B40F0BE80654B3B6161
:101130003B69D3F8003243F001023B69C3F8002257
:101140003B69D3F8003223F47C523B69C3F8002298
:101150003B69D3F800223B685B6A1B021A433B6978
:10116000C3F800223B685B6903F01F03012202FA07
:1011700003F3FB603B69D3F81C22FB68DB431A4096
:101180003B69C3F81C223B68DB69002B23D13B6918
:10119000D3F80C22FB68DB431A403B69C3F80C22EE
:1011A0003B68DB6819043B685B689BB23A6852692C
:1011B00019433B69483243F832103B689B68190475
:1011C0003B681B689AB23B685B690A4339694833DC
:1011D000DB000B445A603B68DB69012B22D13B6981
:1011E000D3F80C22FB681A433B69C3F80C223B6816
:1011F0001B6819043B685B689BB23A6852691943E3
:101200003B69483243F832103B689B6819043B68DD
:10121000DB689AB23B685B690A4339694833DB0093
:101220000B445A603B689B69002B09D13B69D3F89A
:101230000422FB68DB431A403B69C3F8042207E041
:101240003B69D3F80422FB681A433B69C3F80422C4
:101250003B681B69002B09D13B69D3F81422FB685A
:10126000DB431A403B69C3F8142207E03B69D3F81B
:101270001422FB681A433B69C3F814223B681B6ABB
:10128000012B07D13B69D3F81C22FB681A433B6949
:10129000C3F81C223B69D3F8003223F001023B69FA
:1012A000C3F80022002306E07B685B6A43F48022D7
:1012B0007B685A62012318461C37BD465DF8047BE3
:1012C000704700BF0064004080B584B000AF786014
:1012D0007B6893F82030DBB2012B2ED17B68022291
:1012E00083F820207B681B681A687B681B6822F0E3
:1012F00001021A6002F024F8F86012E002F020F80F
:101300000246FB68D31A0A2B0BD97B685B6A43F44D
:1013100000327B685A627B68052283F82020012313
:1013200012E07B681B685B6803F00103002BE5D1CA
:101330007B6800225A62002306E07B685B6A43F404
:1013400000227B685A62012318461037BD4680BDD3
:1013500080B489B000AFF860B9607A603B60FB6828
:1013600093F82030FB77FB681B689B68BB61FB7FB1
:10137000012B03D0FB7F022B40F0AD80BB6903F053
:101380008063002B0AD1BB6903F00063002B05D1F9
:10139000BB6903F08053002B00F09580BB691B0EE6
:1013A00003F003037B6101227B699A403B681A606A
:1013B000BB689B68002B0DD1BB681B685A05BB68D6
:1013C000DB68F96809681A437B6918331B010B4411
:1013D0001A600FE0BB685B68DA00BB689B681A4361
:1013E000BB68DB68F96809681A437B6918331B011D
:1013F0000B441A60FB681968BB681A697B6918336B
:101400001B010B4404331A60BB681B7D012B11D1F7
:10141000FB681A687B6918331B01134404331B688B
:10142000FA68116843F480727B6918331B010B441E
:1014300004331A607B6807331B781A067B6806330F
:101440001B781B041A437B6805331B781B0213436C
:101450007A68043212781046FA68116843EA00028A
:101460007B691B010B4403F5C6731A607B68033369
:101470001B781A067B6802331B781B041A437B68AF
:1014800001331B781B0213437A6812781046FA68FE
:10149000116843EA00027B691B010B4403F5C47326
:1014A0001A60FB681A687B6918331B0113441B68B8
:1014B000FA68116843F001027B6918331B010B4481
:1014C0001A6000230EE0FB685B6A43F40012FB68BD
:1014D0005A62012306E0FB685B6A43F48022FB68E2
:1014E0005A62012318462437BD465DF8047B7047D5
:1014F00080B485B000AF78600023FB607B6893F810
:101500002030FB72FB7A012B02D0FB7A022B1DD11B
:101510007B681B689B6803F08063002B02D0FB682C
:101520000133FB607B681B689B6803F00063002B42
:1015300002D0FB680133FB607B681B689B6803F08B
:101540008053002B02D0FB680133FB60FB68184618
:101550001437BD465DF8047B704780B487B000AF98
:10156000F860B9607A603B60FB6893F82030FB75E7
:10157000FB7D012B03D0FB7D022B40F00381BB6878
:10158000002B0ED1FB681B68DB6803F00303002B04
:1015900016D1FB685B6A43F40012FB685A620123B0
:1015A000F7E0FB681B681B6903F00303002B07D1FE
:1015B000FB685B6A43F40012FB685A620123E8E0AF
:1015C000FB681A68BB681B331B0113441B6803F0DC
:1015D00004027B689A607B689B68002B0CD1FB68D7
:1015E0001A68BB681B331B0113441B685B0DC3F3F4
:1015F0000A027B681A600BE0FB681A68BB681B3341
:101600001B0113441B68DB0823F060427B685A60AF
:10161000FB681A68BB681B331B0113441B6803F08B
:1016200002027B68DA60FB681A68BB681B331B0127
:10163000134404331B6803F00803002B03D07B68BA
:1016400008221A610BE0FB681A68BB681B331B0198
:10165000134404331B6803F00F027B681A61FB68B4
:101660001A68BB681B331B01134404331B681B0A35
:10167000DAB27B689A61FB681A68BB681B331B018E
:10168000134404331B681B0C9AB27B685A61FB68D5
:101690001A68BB681B01134403F5DC731B68DAB2DC
:1016A0003B681A70FB681A68BB681B01134403F59A
:1016B000DC731B681A0A3B680133D2B21A70FB68EC
:1016C0001A68BB681B01134403F5DC731B681A0C12
:1016D0003B680233D2B21A70FB681A68BB681B0100
:1016E000134403F5DC731B681A0E3B680333D2B254
:1016F0001A70FB681A68BB681B01134403F5DE739C
:101700001A683B680433D2B21A70FB681A68BB6867
:101710001B01134403F5DE731B681A0A3B6805338B
:10172000D2B21A70FB681A68BB681B01134403F538
:10173000DE731B681A0C3B680633D2B21A70FB6862
:101740001A68BB681B01134403F5DE731B681A0E8D
:101750003B680733D2B21A70BB68002B08D1FB6814
:101760001B68DA68FB681B6842F02002DA6007E059
:10177000FB681B681A69FB681B6842F020021A614B
:10178000002306E0FB685B6A43F48022FB685A6230
:10179000012318461C37BD465DF8047B704780B4B2
:1017A00085B000AF786039607B6893F82030FB73B8
:1017B000FB7B012B02D0FB7B022B09D17B681B68D2
:1017C00059697B681B683A680A435A61002306E03E
:1017D0007B685B6A43F480227B685A620123184667
:1017E0001437BD465DF8047B704780B58AB000AF02
:1017F000786000237B627B681B685B693B627B6867
:101800001B685B68FB617B681B689B68BB617B68CE
:101810001B68DB687B617B681B681B693B617B68BD
:101820001B689B69FB603B6A03F00103002B7CD0C3
:10183000BB6903F00103002B23D07B681B680122E6
:101840009A60BB6903F00203002B03D0786800F0B4
:1018500083F916E0BB6903F00403002B04D07B6A14
:1018600043F400637B620CE0BB6903F00803002BC8
:1018700004D07B6A43F480537B6202E0786800F016
:1018800089F9BB6903F48073002B24D07B681B6843
:101890004FF480729A60BB6903F40073002B03D08D
:1018A000786800F063F916E0BB6903F48063002BED
:1018B00004D07B6A43F400537B620CE0BB6903F401
:1018C0000063002B04D07B6A43F480437B6202E018
:1018D000786800F069F9BB6903F48033002B24D0E9
:1018E0007B681B684FF480329A60BB6903F4003355
:1018F000002B03D0786800F043F916E0BB6903F4CD
:101900008023002B04D07B6A43F400437B620CE00D
:10191000BB6903F40023002B04D07B6A43F48033BB
:101920007B6202E0786800F049F93B6A03F0080343
:10193000002B0CD07B6903F01003002B07D07B6ACF
:1019400043F400737B627B681B681022DA603B6A99
:1019500003F00403002B0BD07B6903F00803002B7A
:1019600006D07B681B680822DA60786800F030F9DE
:101970003B6A03F00203002B09D07B681B68DB681D
:1019800003F00303002B02D078680DF062FE3B6A7F
:1019900003F04003002B0CD03B6903F01003002B35
:1019A00007D07B6A43F480637B627B681B681022EC
:1019B0001A613B6A03F02003002B0BD03B6903F054
:1019C0000803002B06D07B681B6808221A61786820
:1019D00000F008F93B6A03F01003002B09D07B6884
:1019E0001B681B6903F00303002B02D078680DF01D
:1019F0003BFE3B6A03F40033002B0BD0FB6903F082
:101A00001003002B06D07B681B6810225A60786890
:101A100000F0F2F83B6A03F48033002B0BD0FB6933
:101A200003F00803002B06D07B681B6808225A606D
:101A3000786800F0EBF83B6A03F40043002B7BD09E
:101A4000FB6903F00403002B72D03B6A03F480733C
:101A5000002B08D0FB6803F00103002B03D07B6A46
:101A600043F001037B623B6A03F40073002B08D050
:101A7000FB6803F00203002B03D07B6A43F00203F0
:101A80007B623B6A03F48063002B08D0FB6803F0A1
:101A90000403002B03D07B6A43F004037B623B6AA0
:101AA00003F40063002B43D0FB6803F07003002BAA
:101AB0003ED0FB6803F07003602B2BD0602B2ED838
:101AC000502B22D0502B2AD8402B19D0402B26D86F
:101AD000302B10D0302B22D8102B02D0202B05D049
:101AE0001DE07B6A43F008037B6219E07B6A43F0E8
:101AF00010037B6214E07B6A43F020037B620FE0FB
:101B00007B6A43F040037B620AE07B6A43F0800318
:101B10007B6205E07B6A43F480737B6200E000BF78
:101B20007B681B689A697B681B6822F070029A6167
:101B30007B681B6804225A607B6A002B08D07B6894
:101B40005A6A7B6A1A437B685A62786800F068F8C0
:101B500000BF2837BD4680BD80B483B000AF786039
:101B600000BF0C37BD465DF8047B704780B483B07E
:101B700000AF786000BF0C37BD465DF8047B70474E
:101B800080B483B000AF786000BF0C37BD465DF80D
:101B9000047B704780B483B000AF786000BF0C371F
:101BA000BD465DF8047B704780B483B000AF7860B9
:101BB00000BF0C37BD465DF8047B704780B483B02E
:101BC00000AF786000BF0C37BD465DF8047B7047FE
:101BD00080B483B000AF786000BF0C37BD465DF8BD
:101BE000047B704780B483B000AF786000BF0C37CF
:101BF000BD465DF8047B704780B483B000AF786069
:101C000000BF0C37BD465DF8047B704780B483B0DD
:101C100000AF786000BF0C37BD465DF8047B7047AD
:101C200080B483B000AF786000BF0C37BD465DF86C
:101C3000047B704780B586B000AF78607B68002B6E
:101C400001D1012367E27B681B6803F00103002BCD
:101C500075D0884B9B6803F00C03042B0CD0854B8C
:101C60009B6803F00C03082B12D1824B5B6803F4D2
:101C70008003B3F5800F0BD17E4B1B6803F4003358
:101C8000002B5BD07B685B68002B57D1012342E2BD
:101C90007B685B68B3F5803F06D1764B1B68754A5D
:101CA00043F4803313601DE07B685B68B3F5A02FBD
:101CB0000CD1704B1B686F4A43F4802313606D4B4B
:101CC0001B686C4A43F4803313600BE0694B1B685C
:101CD000684A23F480331360664B1B68654A23F41B
:101CE000802313607B685B68002B13D001F028FB16
:101CF000386108E001F024FB02463B69D31A642BEB
:101D000001D9032307E25B4B1B6803F40033002B6C
:101D1000F0D014E001F014FB386108E001F010FB92
:101D200002463B69D31A642B01D90323F3E1514BDB
:101D30001B6803F40033002BF0D100E000BF7B6888
:101D40001B6803F00203002B63D04A4B9B6803F02F
:101D50000C03002B0BD0474B9B6803F00C03082BA4
:101D60001CD1444B5B6803F48003002B16D1414B1C
:101D70001B6803F00203002B05D07B68DB68012B96
:101D800001D00123C7E13B4B1B6823F0F8027B68BD
:101D90001B69DB00374913430B603AE07B68DB6863
:101DA000002B20D0344B01221A6001F0C9FA3861AF
:101DB00008E001F0C5FA02463B69D31A022B01D9AB
:101DC0000323A8E12B4B1B6803F00203002BF0D088
:101DD000284B1B6823F0F8027B681B69DB00254950
:101DE00013430B6015E0244B00221A6001F0A8FA9F
:101DF000386108E001F0A4FA02463B69D31A022BCD
:101E000001D9032387E11B4B1B6803F00203002B5E
:101E1000F0D17B681B6803F00803002B36D07B6889
:101E20005B69002B16D0154B01221A6001F088FA6D
:101E3000386108E001F084FA02463B69D31A022BAC
:101E400001D9032367E10B4B5B6F03F00203002B07
:101E5000F0D01BE0094B00221A6001F071FA3861E2
:101E60000EE001F06DFA02463B69D31A022B07D946
:101E7000032350E10038024000004742800E4742F1
:101E8000884B5B6F03F00203002BEAD17B681B6871
:101E900003F00403002B00F097800023FB75814BB7
:101EA0001B6C03F08053002B0FD10023BB607D4BD4
:101EB0001B6C7C4A43F0805313647A4B1B6C03F019
:101EC0008053BB60BB680123FB75774B1B6803F431
:101ED0008073002B18D1744B1B68734A43F48073D2
:101EE000136001F02DFA386108E001F029FA02468A
:101EF0003B69D31A022B01D903230CE16A4B1B68FF
:101F000003F48073002BF0D07B689B68012B06D113
:101F1000644B1B6F634A43F0010313671CE07B684B
:101F20009B68052B0CD15F4B1B6F5E4A43F004038B
:101F300013675C4B1B6F5B4A43F0010313670BE0B5
:101F4000584B1B6F574A23F001031367554B1B6F08
:101F5000544A23F0040313677B689B68002B15D059
:101F600001F0EEF938610AE001F0EAF902463B6956
:101F7000D31A41F28832934201D90323CBE0494B73
:101F80001B6F03F00203002BEED014E001F0D8F930
:101F900038610AE001F0D4F902463B69D31A41F2F4
:101FA0008832934201D90323B5E03E4B1B6F03F007
:101FB0000203002BEED1FB7D012B05D1394B1B6CAD
:101FC000384A23F0805313647B689B69002B00F030
:101FD000A180344B9B6803F00C03082B5CD07B681A
:101FE0009B69022B41D1314B00221A6001F0A8F904
:101FF000386108E001F0A4F902463B69D31A022BCC
:1020000001D9032387E0274B1B6803F00073002BE3
:10201000F0D17B68DA697B681B6A1A437B685B6A6C
:102020009B011A437B689B6A5B08013B1B041A43B4
:102030007B68DB6A1B061B4913434B601B4B012269
:102040001A6001F07DF9386108E001F079F9024683
:102050003B69D31A022B01D903235CE0114B1B68A7
:1020600003F00073002BF0D054E0104B00221A60F4
:1020700001F066F9386108E001F062F902463B6957
:10208000D31A022B01D9032345E0064B1B6803F04A
:102090000073002BF0D13DE07B689B69012B07D1D9
:1020A000012338E0003802400070004060004742E1
:1020B0001B4B5B68FB607B689B69012B28D0FB682E
:1020C00003F480027B68DB699A4221D1FB6803F04C
:1020D0003F027B681B6A9A421AD1FA6847F6C073BE
:1020E00013407A68526A9201934211D1FB6803F45B
:1020F00040327B689B6A5B08013B1B049A4207D114
:10210000FB6803F070627B68DB6A1B069A4201D0B1
:10211000012300E0002318461837BD4680BD00BFEC
:102120000038024080B584B000AF786039607B68C9
:10213000002B01D10123CCE0684B1B6803F007039F
:102140003A689A420CD9654B3A68D2B21A70634B1E
:102150001B6803F007033A689A4201D00123B8E0F4
:102160007B681B6803F00203002B20D07B681B6890
:1021700003F00403002B05D0594B9B68584A43F4E5
:10218000E05393607B681B6803F00803002B05D0C5
:10219000534B9B68524A43F460439360504B9B6897
:1021A00023F0F0027B689B684D4913438B607B688A
:1021B0001B6803F00103002B44D07B685B68012B94
:1021C00007D1474B1B6803F40033002B19D10123BF
:1021D0007FE07B685B68022B03D07B685B68032B26
:1021E00007D13F4B1B6803F00073002B09D101237B
:1021F0006FE03B4B1B6803F00203002B01D101236E
:1022000067E0374B9B6823F003027B685B683449C7
:1022100013438B6001F094F8F8600AE001F090F845
:102220000246FB68D31A41F28832934201D9032354
:102230004FE02B4B9B6803F00C027B685B689B00B4
:102240009A42EBD1254B1B6803F007033A689A4288
:102250000CD2224B3A68D2B21A70204B1B6803F0A2
:1022600007033A689A4201D0012332E07B681B6879
:1022700003F00403002B08D0194B9B6823F4E052B1
:102280007B68DB68164913438B607B681B6803F02F
:102290000803002B09D0124B9B6823F460427B6833
:1022A0001B69DB000E4913438B6000F021F80246E6
:1022B0000B4B9B681B0903F00F030A49CB5C22FA06
:1022C00003F3094A1360094B1B68184600F0F4FF3A
:1022D000002318461037BD4680BD00BF003C0240B9
:1022E000003802406C0701080000002004000020B4
:1022F0002DE9B04F90B000AF00237B630023FB6358
:1023000000233B630023BB63584B9B6803F00C0323
:10231000082B0DD0082B00F2A080002B02D0042B3C
:1023200003D09AE0524BBB639AE0524BBB6397E0F9
:102330004E4B5B6803F03F037B634C4B5B6803F4DD
:102340008003002B27D0494B5B689B0900223B622E
:102350007A623B6AC3F308000021464B03FB01F29B
:10236000002300FB03F31344424AA0FB0221F9625D
:10237000BA62FA6A1344FB627B6B0022BB61FA61AA
:10238000D7E90623D7E90A01FEF7C8FB02460B4648
:102390001346FB6353E0354B5B689B0900223B61AE
:1023A0007A613B69C3F3080A4FF0000B52465B4663
:1023B0004FF000004FF00001590141EAD261500195
:1023C00002460B46B2EB0A0863EB0B094FF0000222
:1023D0004FF000034FEA891343EA98634FEA8812EB
:1023E000B2EB080463EB09054FF000024FF0000365
:1023F000EB0043EA5473E20014461D4614EB0A0353
:102400003B6045EB0B037B604FF000024FF0000395
:10241000D7E9004529468B02214643EA91532146DC
:102420008A02104619467B6B0022BB60FA60D7E92E
:102430000223FEF773FB02460B461346FB630B4B6E
:102440005B681B0C03F0030301335B003B63FA6B17
:102450003B6BB2FBF3F3BB6302E0054BBB6300BF16
:10246000BB6B18464037BD46BDE8B08F0038024010
:102470000024F40040787D0180B400AF034B1B685A
:102480001846BD465DF8047B704700BF0000002081
:1024900080B500AFFFF7F0FF0246054B9B689B0A33
:1024A00003F007030349CB5C22FA03F3184680BD0F
:1024B000003802407C07010880B500AFFFF7DCFF61
:1024C0000246054B9B685B0B03F007030349CB5C9B
:1024D00022FA03F3184680BD003802407C07010849
:1024E00080B489B000AF7860396000237B6100233D
:1024F0003B610023BB610023FB616BE10122FB69AF
:1025000002FA03F37B613B681B687A6913403B6105
:102510003A697B699A4240F05A813B685B6803F0F4
:102520000303012B05D03B685B6803F00303022B18
:1025300030D17B689B68BB61FB695B00032202FAB8
:1025400003F3DB43BA691340BB613B68DA68FB699C
:102550005B0002FA03F3BA691343BB617B68BA6993
:102560009A607B685B68BB610122FB6902FA03F336
:10257000DB43BA691340BB613B685B681B0903F02E
:102580000102FB6902FA03F3BA691343BB617B687A
:10259000BA695A603B685B6803F00303032B17D0EA
:1025A0007B68DB68BB61FB695B00032202FA03F313
:1025B000DB43BA691340BB613B689A68FB695B0007
:1025C00002FA03F3BA691343BB617B68BA69DA6044
:1025D0003B685B6803F00303022B23D1FB69DA0835
:1025E0007B68083253F82230BB61FB6903F00703B4
:1025F0009B000F2202FA03F3DB43BA691340BB616D
:102600003B681A69FB6903F007039B0002FA03F3B6
:10261000BA691343BB61FB69DA087B680832B969A0
:1026200043F822107B681B68BB61FB695B000322D7
:1026300002FA03F3DB43BA691340BB613B685B6892
:1026400003F00302FB695B0002FA03F3BA69134368
:10265000BB617B68BA691A603B685B6803F440330E
:10266000002B00F0B4800023FB60604B5B6C5F4A82
:1026700043F4804353645D4B5B6C03F48043FB6025
:10268000FB685B4AFB699B08023352F82330BB614D
:10269000FB6903F003039B000F2202FA03F3DB4301
:1026A000BA691340BB617B68524A93422BD07B6866
:1026B000514A934225D07B68504A93421FD07B6891
:1026C0004F4A934219D07B684E4A934213D07B689D
:1026D0004D4A93420DD07B684C4A934207D07B68A9
:1026E0004B4A934201D107230EE008230CE0062356
:1026F0000AE0052308E0042306E0032304E00223A4
:1027000002E0012300E00023FA6902F003029200D4
:102710009340BA691343BB613549FB699B08023397
:10272000BA6941F823203B4B9B68BB613B69DB43A3
:10273000BA691340BB613B685B6803F48013002BEC
:1027400003D0BA693B691343BB61324ABB699360EA
:10275000304BDB68BB613B69DB43BA691340BB614B
:102760003B685B6803F40013002B03D0BA693B6934
:102770001343BB61274ABB69D360264B5B68BB61CF
:102780003B69DB43BA691340BB613B685B6803F498
:102790000033002B03D0BA693B691343BB611D4A68
:1027A000BB6953601B4B1B68BB613B69DB43BA6968
:1027B0001340BB613B685B6803F48033002B03D09C
:1027C000BA693B691343BB61124ABB691360FB6979
:1027D0000133FB61FB690F2B7FF690AE00BF00BF9A
:1027E0002437BD465DF8047B704700BF00380240C7
:1027F000003801400000024000040240000802408E
:10280000000C024000100240001402400018024078
:10281000001C0240003C014080B483B000AF7860EF
:102820000B467B8013467B707B78002B03D07A8825
:102830007B689A6103E07B881A047B689A6100BF19
:102840000C37BD465DF8047B7047000080B586B04C
:1028500000AF786000237B6100F072FD38617B6817
:10286000002B01D1012399E07B68022283F83520F7
:102870007B68002283F834207B681B681A687B68B9
:102880001B6822F001021A600FE000F059FD0246B9
:102890003B69D31A052B08D97B6820225A657B68CF
:1028A000032283F83520032378E07B681B681B68CC
:1028B00003F00103002BE8D17B681B681B687B6178
:1028C0007A69384B13407B617B685A687B689B68E8
:1028D0001A437B68DB681A437B681B691A437B6871
:1028E0005B691A437B689B691A437B68DB691A43FF
:1028F0007B681B6A13437A6913437B617B685B6A5D
:10290000042B07D17B68DA6A7B681B6B13437A69F7
:1029100013437B617B681B687A691A607B681B685C
:102920005B697B617B6923F007037B617B685B6A82
:102930007A6913437B617B685B6A042B17D17B68E0
:102940009B6A7A6913437B617B68DB6A002B0ED03C
:10295000786800F001FB0346002B08D07B6840221A
:102960005A657B68012283F83520012316E07B68D5
:102970001B687A695A61786800F0B8FA0346FB6010
:102980007B68DB6D3F229A40FB689A607B6800227F
:102990005A657B68012283F83520002318461837D2
:1029A000BD4680BD3F8010F080B586B000AFF860B6
:1029B000B9607A603B600023FB75FB689B6D3B61EF
:1029C000FB6893F83430012B01D1022340E0FB680F
:1029D000012283F83420FB6893F83530DBB2012BF9
:1029E0002FD1FB68022283F83520FB6800225A654C
:1029F0003B687A68B968F86800F04AFAFB68DB6DF2
:102A00003F229A403B699A60FB681B681A68FB6822
:102A10001B6842F016021A60FB681B6C002B07D083
:102A2000FB681B681A68FB681B6842F008021A60A2
:102A3000FB681B681A68FB681B6842F001021A6099
:102A400005E0FB68002283F834200223FB75FB7D40
:102A500018461837BD4680BD80B584B000AF786099
:102A60007B689B6DFB6000F06BFCB8607B6893F843
:102A70003530DBB2022B08D07B6880225A657B6838
:102A8000002283F83420012352E07B681B681A6817
:102A90007B681B6822F016021A607B681B685A6903
:102AA0007B681B6822F080025A617B681B6C002BDC
:102AB00003D17B689B6C002B07D07B681B681A686E
:102AC0007B681B6822F008021A607B681B681A6822
:102AD0007B681B6822F001021A6013E000F030FCF2
:102AE0000246BB68D31A052B0CD97B6820225A6595
:102AF0007B68032283F835207B68002283F834202A
:102B0000032315E07B681B681B6803F00103002B9F
:102B1000E4D17B68DB6D3F229A40FB689A607B685A
:102B2000012283F835207B68002283F834200023BB
:102B300018461037BD4680BD80B483B000AF7860C2
:102B40007B6893F83530DBB2022B04D07B6880229F
:102B50005A6501230CE07B68052283F835207B68E9
:102B60001B681A687B681B6822F001021A60002348
:102B700018460C37BD465DF8047B704780B586B0BB
:102B800000AF78600023BB608E4B1B688E4AA2FBAF
:102B900003239B0A7B617B689B6D3B613B691B68E0
:102BA000FB607B68DB6D08229A40FB681340002BBA
:102BB0001AD07B681B681B6803F00403002B13D03A
:102BC0007B681B681A687B681B6822F004021A6025
:102BD0007B68DB6D08229A403B699A607B685B6D7D
:102BE00043F001027B685A657B68DB6D01229A40E5
:102BF000FB681340002B12D07B681B685B6903F0F5
:102C00008003002B0BD07B68DB6D01229A403B696F
:102C10009A607B685B6D43F002027B685A657B6853
:102C2000DB6D04229A40FB681340002B12D07B68B6
:102C30001B681B6803F00203002B0BD07B68DB6D65
:102C400004229A403B699A607B685B6D43F0040202
:102C50007B685A657B68DB6D10229A40FB681340E5
:102C6000002B43D07B681B681B6803F00803002B14
:102C70003CD07B68DB6D10229A403B699A607B6890
:102C80001B681B6803F48023002B18D07B681B682B
:102C90001B6803F40023002B08D17B681B6C002BFE
:102CA00024D07B681B6C786898471FE07B689B6C1E
:102CB000002B1BD07B689B6C7868984716E07B687C
:102CC0001B681B6803F48073002B07D17B681B68AB
:102CD0001A687B681B6822F008021A607B681B6C0C
:102CE000002B03D07B681B6C786898477B68DB6D92
:102CF00020229A40FB681340002B00F08F807B68F5
:102D00001B681B6803F01003002B00F087807B68B2
:102D1000DB6D20229A403B699A607B6893F83530DE
:102D2000DBB2052B36D17B681B681A687B681B6891
:102D300022F016021A607B681B685A697B681B6860
:102D400022F080025A617B681B6C002B03D17B68E8
:102D50009B6C002B07D07B681B681A687B681B681C
:102D600022F008021A607B68DB6D3F229A403B69C3
:102D70009A607B68012283F835207B68002283F803
:102D800034207B681B6D002B7ED07B681B6D7868C0
:102D9000984779E07B681B681B6803F48023002B4D
:102DA0001DD07B681B681B6803F40023002B0DD12A
:102DB0007B685B6C002B31D07B685B6C78689847D4
:102DC0002CE000BF00000020B5814E1B7B68DB6B50
:102DD000002B23D07B68DB6B786898471EE07B680C
:102DE0001B681B6803F48073002B0FD17B681B6882
:102DF0001A687B681B6822F010021A607B68012247
:102E000083F835207B68002283F834207B68DB6BF5
:102E1000002B03D07B68DB6B786898477B685B6D21
:102E2000002B32D07B685B6D03F00103002B22D0B6
:102E30007B68052283F835207B681B681A687B68ED
:102E40001B6822F001021A60BB680133BB607A691B
:102E50009A4207D37B681B681B6803F00103002BB1
:102E6000F2D100E000BF7B68012283F835207B6847
:102E7000002283F834207B68DB6C002B05D07B6854
:102E8000DB6C7868984700E000BF1837BD4680BD0E
:102E900080B485B000AFF860B9607A603B60FB68D1
:102EA0001B681A68FB681B6822F480221A60FB68A2
:102EB0001B683A685A60FB689B68402B08D1FB6826
:102EC0001B687A689A60FB681B68BA68DA6007E07A
:102ED000FB681B68BA689A60FB681B687A68DA60EE
:102EE00000BF1437BD465DF8047B704780B485B0E1
:102EF00000AF78607B681B68DBB2103B144AA2FB12
:102F000003231B09FB60134AFB6813441B781A4612
:102F10007B68DA65FB68032B09D97B681B6823F49F
:102F20007F7323F003031A1D7B689A6507E07B68B3
:102F30001B6823F47F7323F003037A6893657B682F
:102F40009B6D18461437BD465DF8047B704700BF83
:102F5000ABAAAAAA8407010880B485B000AF786044
:102F60000023FB737B689B6ABB607B689B69002BBB
:102F70001FD1BB68032B56D801A252F823F000BF23
:102F8000912F0008A32F0008912F00082730000878
:102F90007B68DB6A03F08073002B46D00123FB7350
:102FA00043E07B68DB6AB3F1C07F40D10123FB7350
:102FB0003DE07B689B69B3F5005F21D1BB68032BC3
:102FC00037D801A252F823F0D92F0008DF2F0008CC
:102FD000D92F0008F12F00080123FB7330E07B6834
:102FE000DB6A03F08073002B25D00123FB7322E002
:102FF0007B68DB6AB3F1C07F1FD10123FB731CE048
:10300000BB68022B03D9BB68032B03D018E0012354
:10301000FB7315E07B68DB6A03F08073002B0ED036
:103020000123FB730BE000BF0AE000BF08E000BF14
:1030300006E000BF04E000BF02E000BF00E000BF08
:10304000FB7B18461437BD465DF8047B704700BF14
:1030500080B485B000AF78607B6803F00703FB6045
:103060000C4BDB68BB60BA684FF6FF031340BB60D4
:10307000FB681A02BB68134343F0BF6343F4003399
:10308000BB60044ABB68D36000BF1437BD465DF81F
:10309000047B704700ED00E080B400AF044BDB68B8
:1030A0001B0A03F007031846BD465DF8047B704712
:1030B00000ED00E080B483B000AF0346FB7197F9E8
:1030C0000730002B0BDBFB7903F01F02074997F950
:1030D00007305B09012000FA02F241F8232000BF0B
:1030E0000C37BD465DF8047B704700BF00E100E08F
:1030F00080B483B000AF03463960FB7197F90730A5
:10310000002B0ADB3B68DAB20C4997F90730120151
:10311000D2B20B4483F800230AE03B68DAB20849D4
:10312000FB7903F00F03043B1201D2B20B441A7671
:1031300000BF0C37BD465DF8047B704700E100E03E
:1031400000ED00E080B489B000AFF860B9607A604B
:10315000FB6803F00703FB61FB69C3F10703042B62
:1031600028BF0423BB61FB690433062B02D9FB692A
:10317000033B00E000237B614FF0FF32BB6902FAA2
:1031800003F3DA43BB681A407B699A404FF0FF3182
:103190007B6901FA03F3D9437B680B40134318465C
:1031A0002437BD465DF8047B7047000080B582B0CF
:1031B00000AF78607B68013BB3F1807F01D30123CE
:1031C0000FE00A4A7B68013B53600F214FF0FF304C
:1031D000FFF78EFF054B00229A60044B07221A600E
:1031E000002318460837BD4680BD00BF10E000E050
:1031F00080B582B000AF78607868FFF729FF00BF24
:103200000837BD4680BD80B586B000AF0346B960C3
:103210007A60FB7300237B61FFF73EFF78617A6879
:10322000B9687869FFF78EFF024697F90F301146AB
:103230001846FFF75DFF00BF1837BD4680BD80B55B
:1032400082B000AF0346FB7197F907301846FFF7CD
:1032500031FF00BF0837BD4680BD80B582B000AFEA
:1032600078607868FFF7A2FF034618460837BD4626
:1032700080BD000080B500AF0E4B1B680D4A43F4C3
:10328000007313600B4B1B680A4A43F4806313609E
:10329000084B1B68074A43F4807313600320FFF751
:1032A000A7FF0F2000F008F804F036FA00231846B4
:1032B00080BD00BF003C024080B582B000AF7860A6
:1032C000124B1A68124B1B7819464FF47A73B3FBF2
:1032D000F1F3B2FBF3F31846FFF7BFFF0346002BF1
:1032E00001D001230EE07B680F2B0AD800227968F9
:1032F0004FF0FF30FFF787FF064A7B68136000231B
:1033000000E0012318460837BD4680BD00000020BC
:10331000080000200400002080B400AF064B1B789A
:103320001A46064B1B681344044A136000BFBD468F
:103330005DF8047B704700BF080000208C0000206F
:1033400080B400AF034B1B681846BD465DF8047B94
:10335000704700BF8C00002080B584B000AF78605B
:10336000FFF7EEFFB8607B68FB60FB68B3F1FF3FDF
:1033700005D00A4B1B781A46FB681344FB6000BF5C
:10338000FFF7DEFF0246BB68D31AFA689A42F7D805
:1033900000BF00BF1037BD4680BD00BF0800002041
:1033A00080B582B000AF78607B68002B01D101232B
:1033B0007BE07B685B6A002B08D17B685B68B3F5B8
:1033C000827F09D07B680022DA6105E07B680022F9
:1033D0001A617B6800225A617B6800229A627B68CE
:1033E00093F85130DBB2002B06D17B68002283F8C2
:1033F0005020786803F0C6F97B68022283F85120D8
:103400007B681B681A687B681B6822F040021A60A0
:103410007B685B6803F482727B689B6803F40443F7
:103420001A437B68DB6803F400631A437B681B69FB
:1034300003F002031A437B685B6903F001031A433C
:103440007B689B6903F400731A437B68DB6903F0B4
:1034500038031A437B681B6A03F0800342EA0301C6
:103460007B689B6A03F400527B681B680A431A60FE
:103470007B689B691B0C03F004017B685B6A03F0AB
:1034800010027B681B680A435A607B681B68DA6914
:103490007B681B6822F40062DA617B6800225A654F
:1034A0007B68012283F85120002318460837BD4667
:1034B00080BD80B588B000AFF860B9603B6013464E
:1034C000FB80FFF73DFFF861FB887B83FB6893F887
:1034D0005130DBB2012B01D002232AE1BB68002B63
:1034E00002D0FB88002B01D1012322E1FB6893F875
:1034F0005030012B01D102231BE1FB68012283F82C
:103500005020FB68032283F85120FB6800225A6593
:10351000FB68BA681A63FB68FA889A86FB68FA88BF
:10352000DA86FB6800229A63FB6800229A87FB68B0
:103530000022DA87FB6800225A64FB6800221A64C2
:10354000FB689B68B3F5004F0FD1FB681B681A68D6
:10355000FB681B6822F040021A60FB681B681A684F
:10356000FB681B6842F480421A60FB681B681B689A
:1035700003F04003402B07D0FB681B681A68FB6808
:103580001B6842F040021A60FB68DB68B3F5006F0D
:1035900052D1FB685B68002B02D07B8B012B45D19D
:1035A000FB681B6B1A88FB681B68DA60FB681B6B87
:1035B0009A1CFB681A63FB68DB8E9BB2013B9AB2D4
:1035C000FB68DA8632E0FB681B689B6803F0020345
:1035D000022B12D1FB681B6B1A88FB681B68DA6030
:1035E000FB681B6B9A1CFB681A63FB68DB8E9BB243
:1035F000013B9AB2FB68DA8618E0FFF7A1FE0246AB
:10360000FB69D31A3A689A4203D83B68B3F1FF3F8B
:1036100002D13B68002B09D1FB68012283F85120BD
:10362000FB68002283F85020032382E0FB68DB8ED6
:103630009BB2002BC7D153E0FB685B68002B02D024
:103640007B8B012B47D1FB681A6BFB681B680C3323
:1036500012781A70FB681B6B5A1CFB681A63FB68B4
:10366000DB8E9BB2013B9AB2FB68DA8633E0FB68E3
:103670001B689B6803F00203022B13D1FB681A6BD3
:10368000FB681B680C3312781A70FB681B6B5A1CA2
:10369000FB681A63FB68DB8E9BB2013B9AB2FB6846
:1036A000DA8618E0FFF74CFE0246FB69D31A3A6847
:1036B0009A4203D83B68B3F1FF3F02D13B68002B2D
:1036C00009D1FB68012283F85120FB68002283F8AE
:1036D000502003232DE0FB68DB8E9BB2002BC6D16C
:1036E000FA693968F86800F0D9FB0346002B02D06C
:1036F000FB6820225A65FB689B68002B0AD10023D7
:103700007B61FB681B68DB687B61FB681B689B68EF
:103710007B617B69FB68012283F85120FB680022F2
:1037200083F85020FB685B6D002B01D0012300E083
:10373000002318462037BD4680BD80B588B002AF53
:10374000F860B9603B601346FB80FB6893F851302A
:10375000DBB2012B01D0022304E1BB68002B02D0B5
:10376000FB88002B01D10123FCE0FB685B68B3F50B
:10377000827F12D1FB689B68002B0ED1FB6804226C
:1037800083F85120FA883B6800931346BA68B968F9
:10379000F86800F0EBF80346E4E0FFF7D1FD78614C
:1037A000FB6893F85030012B01D10223DAE0FB686B
:1037B000012283F85020FB68042283F85120FB6823
:1037C00000225A65FB68BA689A63FB68FA889A8790
:1037D000FB68FA88DA87FB6800221A63FB6800221C
:1037E0009A86FB680022DA86FB6800221A64FB686E
:1037F00000225A64FB689B68B3F5004F0FD1FB6849
:103800001B681A68FB681B6822F040021A60FB689C
:103810001B681A68FB681B6822F480421A60FB6808
:103820001B681B6803F04003402B07D0FB681B6834
:103830001A68FB681B6842F040021A60FB68DB688C
:10384000002B70D135E0FB681B689B6803F0010317
:10385000012B15D1FB681B6803F10C02FB689B6B05
:103860001278D2B21A70FB689B6B5A1CFB689A6381
:10387000FB68DB8F9BB2013B9AB2FB68DA8718E0EA
:10388000FFF75EFD02467B69D31A3A689A4203D875
:103890003B68B3F1FF3F02D13B68002B09D1FB68C5
:1038A000012283F85120FB68002283F85020032373
:1038B00058E0FB68DB8F9BB2002BC4D138E0FB687B
:1038C0001B689B6803F00103012B13D1FB681B6885
:1038D000DA68FB689B6B92B21A80FB689B6B9A1C40
:1038E000FB689A63FB68DB8F9BB2013B9AB2FB6873
:1038F000DA8718E0FFF724FD02467B69D31A3A689D
:103900009A4203D83B68B3F1FF3F02D13B68002BDA
:1039100009D1FB68012283F85120FB68002283F85B
:10392000502003231EE0FB68DB8F9BB2002BC6D127
:103930007A693968F86800F04BFA0346002B02D028
:10394000FB6820225A65FB68012283F85120FB683E
:10395000002283F85020FB685B6D002B01D001230F
:1039600000E0002318461837BD4680BD80B58AB0F8
:1039700000AFF860B9607A607B8001237B62FFF75B
:10398000DFFC3862FB6893F85130FB77FB685B68BB
:10399000BB617B88FB82FB7F012B0CD0BB69B3F53D
:1039A000827F06D1FB689B68002B02D1FB7F042B32
:1039B00001D002237FE1BB68002B05D07B68002B80
:1039C00002D07B88002B01D1012374E1FB6893F8BE
:1039D0005030012B01D102236DE1FB68012283F8F5
:1039E0005020FB6893F85130DBB2042B03D0FB6806
:1039F000052283F85120FB6800225A65FB687A682B
:103A00009A63FB687A88DA87FB687A889A87FB680A
:103A1000BA681A63FB687A88DA86FB687A889A86BD
:103A2000FB6800221A64FB6800225A64FB681B686A
:103A30001B6803F04003402B07D0FB681B681A6823
:103A4000FB681B6842F040021A60FB68DB68B3F554
:103A5000006F7ED1FB685B68002B02D0FB8A012BD4
:103A60006CD1FB681B6B1A88FB681B68DA60FB680B
:103A70001B6B9A1CFB681A63FB68DB8E9BB2013BD5
:103A80009AB2FB68DA8659E0FB681B689B6803F012
:103A90000203022B1BD1FB68DB8E9BB2002B16D0DE
:103AA0007B6A012B13D1FB681B6B1A88FB681B68B0
:103AB000DA60FB681B6B9A1CFB681A63FB68DB8E81
:103AC0009BB2013B9AB2FB68DA8600237B62FB68FB
:103AD0001B689B6803F00103012B19D1FB68DB8F86
:103AE0009BB2002B14D0FB681B68DA68FB689B6BE9
:103AF00092B21A80FB689B6B9A1CFB689A63FB6806
:103B0000DB8F9BB2013B9AB2FB68DA8701237B62B1
:103B1000FFF716FC02463B6AD31A3A6B9A420DD85D
:103B20003B6BB3F1FF3F09D0FB68012283F85120C2
:103B3000FB68002283F850200323BCE0FB68DB8E87
:103B40009BB2002BA0D1FB68DB8F9BB2002B9BD1DB
:103B500082E0FB685B68002B02D0FB8A012B71D1ED
:103B6000FB681A6BFB681B680C3312781A70FB68D1
:103B70001B6B5A1CFB681A63FB68DB8E9BB2013B14
:103B80009AB2FB68DA865DE0FB681B689B6803F00D
:103B90000203022B1CD1FB68DB8E9BB2002B17D0DB
:103BA0007B6A012B14D1FB681A6BFB681B680C3312
:103BB00012781A70FB681B6B5A1CFB681A63FB684F
:103BC000DB8E9BB2013B9AB2FB68DA8600237B62F4
:103BD000FB681B689B6803F00103012B19D1FB688C
:103BE000DB8F9BB2002B14D0FB681B68DA68FB6884
:103BF0009B6BD2B21A70FB689B6B5A1CFB689A6372
:103C0000FB68DB8F9BB2013B9AB2FB68DA8701232A
:103C10007B62FFF795FB02463B6AD31A3A6B9A42E6
:103C200003D83B6BB3F1FF3F02D13B6B002B09D1B3
:103C3000FB68012283F85120FB68002283F85020A2
:103C4000032338E0FB68DB8E9BB2002B9CD1FB6822
:103C5000DB8F9BB2002B97D13A6A396BF86800F082
:103C60001DF90346002B08D0FB6820225A65FB682B
:103C7000002283F8502001231DE0FB689B68002B85
:103C80000AD100233B61FB681B68DB683B61FB6872
:103C90001B689B683B613B69FB68012283F85120EC
:103CA000FB68002283F85020FB685B6D002B01D07D
:103CB000012300E0002318462837BD4680BD0000E0
:103CC00080B588B000AFF860B9603B601346FB7107
:103CD000FFF736FB0246BB6A9B1A3A681344FB6146
:103CE000FFF72EFBB861394B1B685B011B0DFA69AE
:103CF00002FB03F37B6155E03B68B3F1FF3F51D01A
:103D0000FFF71EFB0246BB69D31AFA699A4202D931
:103D1000FB69002B3DD1FB681B685A68FB681B6878
:103D200022F0E0025A60FB685B68B3F5827F11D134
:103D3000FB689B68B3F5004F04D0FB689B68B3F544
:103D4000806F07D1FB681B681A68FB681B6822F04C
:103D500040021A60FB689B6AB3F5005F0FD1FB68F5
:103D60001B681A68FB681B6822F400521A60FB6823
:103D70001B681A68FB681B6842F400521A60FB68F3
:103D8000012283F85120FB68002283F8502003238E
:103D900018E07B69002B02D10023FB6102E07B6904
:103DA000013B7B61FB681B689A68BB681340BA687B
:103DB0009A420CBF01230023DBB21A46FB799A42D8
:103DC0009AD1002318462037BD4680BD0000002050
:103DD00080B586B002AFF860B9607A60FB685B6856
:103DE000B3F5827F11D1FB689B68B3F5004F04D017
:103DF000FB689B68B3F5806F07D1FB681B681A6886
:103E0000FB681B6822F040021A60FB685B68B3F530
:103E1000827F2AD1FB689B68B3F5806F12D07B68E4
:103E20000093BB6800228021F868FFF749FF034632
:103E3000002B2DD0FB685B6D43F02002FB685A65B8
:103E4000032326E07B680093BB6800220121F86809
:103E5000FFF736FF0346002B1AD0FB685B6D43F07B
:103E60002002FB685A65032313E07B680093BB685C
:103E700000220121F868FFF723FF0346002B07D03B
:103E8000FB685B6D43F02002FB685A65032300E08A
:103E9000002318461037BD4680BD000080B588B0AD
:103EA00002AFF860B9607A607B680093BB6801225A
:103EB0000221F868FFF704FF0346002B07D0FB68D8
:103EC0005B6D43F02002FB685A65032332E01B4B15
:103ED0001B681B4AA2FB03235B0D4FF47A7202FBA3
:103EE00003F37B61FB685B68B3F5827F12D17B686B
:103EF0000093BB6800228021F868FFF7E1FE0346CB
:103F0000002B16D0FB685B6D43F02002FB685A65FE
:103F100003230FE07B69002B0AD07B69013B7B61A7
:103F2000FB681B689B6803F08003802BF2D000E0E5
:103F300000BF002318461837BD4680BD0000002092
:103F4000819F5E1680B582B000AF78607B68002BE1
:103F500001D1012341E07B6893F83D30DBB2002BB7
:103F600006D17B68002283F83C20786802F0F8FDD7
:103F70007B68022283F83D207B681A687B680433E3
:103F80001946104600F07EFA7B68012283F846202D
:103F90007B68012283F83E207B68012283F83F2062
:103FA0007B68012283F840207B68012283F841204E
:103FB0007B68012283F842207B68012283F843203A
:103FC0007B68012283F844207B68012283F8452026
:103FD0007B68012283F83D20002318460837BD4640
:103FE00080BD000080B485B000AF78607B6893F836
:103FF0003D30DBB2012B01D001234EE07B68022271
:1040000083F83D207B681B68DA687B681B6842F098
:104010000102DA607B681B68234A934222D07B68E6
:104020001B68B3F1804F1DD07B681B681F4A934209
:1040300018D07B681B681E4A934213D07B681B68AC
:104040001C4A93420ED07B681B681B4A934209D0DE
:104050007B681B68194A934204D07B681B68184A26
:10406000934211D17B681B689B6803F00703FB60D8
:10407000FB68062B10D07B681B681A687B681B687E
:1040800042F001021A6007E07B681B681A687B68CF
:104090001B6842F001021A60002318461437BD461F
:1040A0005DF8047B704700BF000001400004004041
:1040B00000080040000C00400004014000400140A6
:1040C0000018004080B584B000AF78607B681B6842
:1040D000DB68FB607B681B681B69BB60BB6803F027
:1040E0000203002B20D0FB6803F00203002B1BD03F
:1040F0007B681B686FF002021A617B6801221A77E5
:104100007B681B689B6903F00303002B03D078686E
:1041100000F099F905E0786800F08BF9786800F014
:104120009CF97B6800221A77BB6803F00403002B1C
:1041300020D0FB6803F00403002B1BD07B681B68B6
:104140006FF004021A617B6802221A777B681B6891
:104150009B6903F44073002B03D0786800F073F977
:1041600005E0786800F065F9786800F076F97B681A
:1041700000221A77BB6803F00803002B20D0FB68ED
:1041800003F00803002B1BD07B681B686FF008024C
:104190001A617B6804221A777B681B68DB6903F06D
:1041A0000303002B03D0786800F04DF905E0786830
:1041B00000F03FF9786800F050F97B6800221A7728
:1041C000BB6803F01003002B20D0FB6803F0100342
:1041D000002B1BD07B681B686FF010021A617B6894
:1041E00008221A777B681B68DB6903F44073002B95
:1041F00003D0786800F027F905E0786800F019F935
:10420000786800F02AF97B6800221A77BB6803F00F
:104210000103002B0CD0FB6803F00103002B07D037
:104220007B681B686FF001021A6178680BF027FA4F
:10423000BB6803F08003002B0CD0FB6803F0800305
:10424000002B07D07B681B686FF080021A617868CA
:1042500000F0DEFABB6803F04003002B0CD0FB68D3
:1042600003F04003002B07D07B681B686FF040020F
:104270001A61786800F0FBF8BB6803F02003002B9C
:104280000CD0FB6803F02003002B07D07B681B6871
:104290006FF020021A61786800F0B0FA00BF1037A2
:1042A000BD4680BD80B584B000AF78603960002322
:1042B000FB737B6893F83C30012B01D10223B4E0FF
:1042C0007B68012283F83C207B68022283F83D2032
:1042D0007B681B689B68BB60BB6823F07703BB608F
:1042E000BB6823F47F43BB607B681B68BA689A6035
:1042F0003B681B68B3F5005F3ED0B3F5005F00F28A
:104300008780B3F5805F00F08680B3F5805F7FD84B
:10431000702B1AD0702B7BD8602B50D0602B77D8A5
:10432000502B3CD0502B73D8402B58D0402B6FD8FB
:10433000302B64D0302B6BD8202B60D0202B67D84B
:10434000002B5CD0102B5AD062E07B6818683B6869
:1043500099683B685A683B68DB6800F0B3F97B6892
:104360001B689B68BB60BB6843F07703BB607B68DE
:104370001B68BA689A604FE07B6818683B68996868
:104380003B685A683B68DB6800F09CF97B681B68F7
:104390009A687B681B6842F480429A603CE07B68C4
:1043A00018683B6859683B68DB681A4600F010F9EA
:1043B0007B681B685021184600F069F92CE07B6887
:1043C00018683B6859683B68DB681A4600F02FF9AB
:1043D0007B681B686021184600F059F91CE07B6877
:1043E00018683B6859683B68DB681A4600F0F0F8CB
:1043F0007B681B684021184600F049F90CE07B6897
:104400001A683B681B681946104600F040F903E043
:104410000123FB7300E000BF7B68012283F83D208D
:104420007B68002283F83C20FB7B18461037BD4692
:1044300080BD80B483B000AF786000BF0C37BD464C
:104440005DF8047B704780B483B000AF786000BF34
:104450000C37BD465DF8047B704780B483B000AF75
:10446000786000BF0C37BD465DF8047B704780B4B0
:1044700083B000AF786000BF0C37BD465DF8047BA9
:104480007047000080B485B000AF786039607B6809
:104490001B68FB607B68434A934213D07B68B3F18F
:1044A000804F0FD07B68404A93420BD07B683F4AD5
:1044B000934207D07B683E4A934203D07B683D4AD3
:1044C000934208D1FB6823F07003FB603B685B6894
:1044D000FA681343FB607B68324A93422BD07B68B7
:1044E000B3F1804F27D07B682F4A934223D07B685B
:1044F0002E4A93421FD07B682D4A93421BD07B6883
:104500002C4A934217D07B682B4A934213D07B6886
:104510002A4A93420FD07B68294A93420BD07B688A
:10452000284A934207D07B68274A934203D07B688E
:10453000264A934208D1FB6823F44073FB603B6832
:10454000DB68FA681343FB60FB6823F080023B687A
:104550005B691343FB603B689A687B68DA623B687F
:104560001A687B689A627B680E4A934203D07B6824
:10457000104A934203D13B681A697B681A637B68CF
:104580001B6843F004027B681A607B6801225A6151
:104590007B68FA681A6000BF1437BD465DF8047B7B
:1045A000704700BF000001400004004000080040C8
:1045B000000C004000040140004001400044014064
:1045C0000048014000180040001C0040002000404E
:1045D00080B487B000AFF860B9607A60FB681B6A8E
:1045E0007B61FB681B6A23F00102FB681A62FB68AF
:1045F0009B693B613B6923F0F0033B617B681B01D6
:104600003A6913433B617B6923F00A037B617A6952
:10461000BB6813437B61FB683A699A61FB687A69FE
:104620001A6200BF1C37BD465DF8047B704780B43A
:1046300087B000AFF860B9607A60FB681B6A7B6185
:10464000FB681B6A23F01002FB681A62FB689B6917
:104650003B613B6923F470433B617B681B033A6910
:1046600013433B617B6923F0A0037B61BB681B01A3
:104670007A6913437B61FB683A699A61FB687A69DE
:104680001A6200BF1C37BD465DF8047B704780B4DA
:1046900085B000AF786039607B689B68FB60FB6821
:1046A00023F07003FB603A68FB68134343F0070391
:1046B000FB607B68FA689A6000BF1437BD465DF8FE
:1046C000047B704780B487B000AFF860B9607A604F
:1046D0003B60FB689B687B617B6923F47F437B6164
:1046E0003B681A027B681A43BB6813437A69134319
:1046F0007B61FB687A699A6000BF1C37BD465DF834
:10470000047B704780B485B000AF786039607B6807
:1047100093F83C30012B01D102235AE07B6801223F
:1047200083F83C207B68022283F83D207B681B686D
:104730005B68FB607B681B689B68BB60FB6823F061
:104740007003FB603B681B68FA681343FB607B687F
:104750001B68FA685A607B681B68214A934222D022
:104760007B681B68B3F1804F1DD07B681B681D4AB6
:10477000934218D07B681B681B4A934213D07B6816
:104780001B681A4A93420ED07B681B68184A9342F2
:1047900009D07B681B68174A934204D07B681B686A
:1047A000154A93420CD1BB6823F08003BB603B6881
:1047B0005B68BA681343BB607B681B68BA689A6021
:1047C0007B68012283F83D207B68002283F83C202F
:1047D000002318461437BD465DF8047B704700BFC0
:1047E000000001400004004000080040000C0040B0
:1047F00000040140004001400018004080B483B034
:1048000000AF786000BF0C37BD465DF8047B704791
:1048100080B483B000AF786000BF0C37BD465DF850
:10482000047B704780B582B000AF78607B68002B56
:1048300001D1012342E07B6893F84130DBB2002BC9
:1048400006D17B68002283F84020786802F020FBC4
:104850007B68242283F841207B681B68DA687B68C8
:104860001B6822F40052DA60786801F057FA7B681E
:104870001B681A697B681B6822F490421A617B6886
:104880001B685A697B681B6822F02A025A617B68A0
:104890001B68DA687B681B6842F40052DA607B6848
:1048A00000225A647B68202283F841207B68202202
:1048B00083F842207B6800225A6300231846083799
:1048C000BD4680BD80B58AB002AFF860B9603B607C
:1048D0001346FB8000237B61FB6893F84130DBB219
:1048E000202B75D1BB68002B02D0FB88002B01D197
:1048F00001236EE0FB6800225A64FB68212283F8E2
:104900004120FEF71DFD7861FB68FA889A84FB68F8
:10491000FA88DA84FB689B68B3F5805F08D1FB688E
:104920001B69002B04D10023FB61BB68BB6103E062
:10493000BB68FB610023BB612EE03B6800937B6991
:1049400000228021F86800F0C8FE0346002B05D045
:10495000FB68202283F8412003233AE0FB69002B07
:104960000BD1BB691B881A46FB681B68C2F308029F
:104970005A60BB690233BB6107E0FB691A78FB68C8
:104980001B685A60FB690133FB61FB68DB8C9BB2DF
:10499000013B9AB2FB68DA84FB68DB8C9BB2002B8C
:1049A000CBD13B6800937B6900224021F86800F07E
:1049B00094FE0346002B05D0FB68202283F841209B
:1049C000032306E0FB68202283F84120002300E057
:1049D000022318462037BD4680BD000080B58CB04C
:1049E00000AFF860B9601346FB80FB6893F8413074
:1049F000DBB2202B62D1BB68002B02D0FB88002BDE
:104A000001D101235BE0BA68FB681A62FB68FA888F
:104A10009A84FB68FA88DA84FB6800225A64FB688F
:104A2000212283F84120FB689B6B274ADA63FB68ED
:104A30009B6B264A1A64FB689B6B254ADA64FB6809
:104A40009B6B00221A6507F10803FB62FB68986BF9
:104A5000FB6A1968FB681B6804331A46FB88FDF77C
:104A6000A3FF0346002B08D0FB6810225A64FB68A2
:104A7000202283F84120012321E0FB681B686FF0AE
:104A800040021A60FB681B681433BB61BB6953E8C2
:104A9000003F7B617B6943F08003BB62FB681B685E
:104AA0001433BA6A7A623B62396A7A6A41E800234F
:104AB000FB61FB69002BE5D1002300E002231846CF
:104AC0003037BD4680BD00BF29540008C3540008DC
:104AD0004756000880B584B000AFF860B96013464F
:104AE000FB80FB6893F84230DBB2202B12D1BB680D
:104AF000002B02D0FB88002B01D101230BE0FB68C7
:104B000000221A63FB881A46B968F86800F03EFE76
:104B1000034600E0022318461037BD4680BD80B52D
:104B200090B000AF78600023FB637B681B685B6913
:104B300003F08003802B0CBF01230023DBB2FB6357
:104B40007B6893F84130DBB2212B28D1FB6B002B23
:104B500025D07B681B6814337B627B6A53E8003F77
:104B60003B623B6A23F08003BB637B681B681433A2
:104B7000BA6B3A63FB62F96A3A6B41E80023BB62A5
:104B8000BB6A002BE5D17B689B6B002B04D07B6854
:104B90009B6B1846FDF760FF786800F09DFE7B6810
:104BA0001B685B6903F04003402B0CBF012300230B
:104BB000DBB2FB637B6893F84230DBB2222B28D157
:104BC000FB6B002B25D07B681B6814333B613B6972
:104BD00053E8003FFB60FB6823F040037B637B6886
:104BE0001B6814337A6BFA61BB61B969FA6941E8F1
:104BF00000237B617B69002BE5D17B68DB6B002B9D
:104C000004D07B68DB6B1846FDF726FF786800F060
:104C10008BFE002318464037BD4680BD80B5A2B04C
:104C200000AF78600123C7F884307B681B680C33C1
:104C30003B663B6E53E8003FFB65FB6D23F4F0736E
:104C4000C7F880307B681B680C33D7F88020FA6681
:104C5000BB66B96EFA6E41E800237B667B6E002B63
:104C6000E3D17B681B681433FB64FB6C53E8003FA3
:104C7000BB64BB6C23F00103FB677B681B681433C8
:104C8000FA6FBA657B65796DBA6D41E800233B65C3
:104C90003B6D002BE5D17B681B6B012B19D17B6829
:104CA0001B680C33BB63BB6B53E8003F7B637B6BC0
:104CB00023F01003BB677B681B680C33BA6F7A6400
:104CC0003B64396C7A6C41E80023FB63FB6B002B7F
:104CD000E5D17B689B6B002B0FD07B681B685B6901
:104CE00003F08003802B04D17B689B6B534A1A65C9
:104CF00003E07B689B6B00221A657B68DB6B002BF3
:104D00000FD07B681B685B6903F04003402B04D124
:104D10007B68DB6B4A4A1A6503E07B68DB6B002229
:104D20001A657B681B685B6903F08003802B2DD1BB
:104D30007B681B6814337B627B6A53E8003F3B62ED
:104D40003B6A23F080037B677B681B6814337A6FB0
:104D50003A63FB62F96A3A6B41E80023BB62BB6AC3
:104D6000002BE5D17B689B6B002B0FD07B689B6B86
:104D70001846FDF7E1FE0346002B04D07B689B6BD1
:104D800000221A6502E00023C7F884307B681B68A4
:104D90005B6903F04003402B30D17B681B68143300
:104DA0003B613B6953E8003FFB60FB6823F0400335
:104DB0003B677B681B6814333A6FFA61BB61B96962
:104DC000FA6941E800237B617B69002BE5D17B68B0
:104DD000DB6B002B12D07B68DB6B1846FDF7ACFE5B
:104DE0000346002B07D07B68DB6B00221A6501238A
:104DF000C7F8843002E00023C7F88430D7F8843045
:104E0000012B16D17B680022DA847B680022DA85C8
:104E10007B6800225A647B68202283F841207B68EB
:104E2000202283F842207B6800221A63786800F011
:104E3000E5FA002318468837BD4680BD115A0008A0
:104E4000715A000880B5BAB000AF78607B681B6803
:104E50001B68C7F8E4307B681B68DB68C7F8E03084
:104E60007B681B685B69C7F8DC300023C7F8D83063
:104E70000023C7F8D430D7F8E43003F00F03C7F8A5
:104E8000D830D7F8D830002B0FD1D7F8E43003F062
:104E90002003002B09D0D7F8E03003F02003002BCB
:104EA00003D0786800F07CFE73E2D7F8D830002B8E
:104EB00000F0DE80D7F8DC3003F00103002B06D1D0
:104EC000D7F8E03003F49073002B00F0D180D7F8CE
:104ED000E43003F00103002B0BD0D7F8E03003F4EB
:104EE0008073002B05D07B685B6C43F001027B680C
:104EF0005A64D7F8E43003F00403002B0BD0D7F842
:104F0000DC3003F00103002B05D07B685B6C43F0C1
:104F100002027B685A64D7F8E43003F00203002BE6
:104F20000BD0D7F8DC3003F00103002B05D07B68F1
:104F30005B6C43F004027B685A64D7F8E43003F0FA
:104F40000803002B11D0D7F8E03003F02003002B2A
:104F500005D1D7F8DC3003F00103002B05D07B68C6
:104F60005B6C43F008027B685A647B685B6C002BC7
:104F700000F00A82D7F8E43003F02003002B08D0B9
:104F8000D7F8E03003F02003002B02D0786800F05F
:104F900007FE7B681B685B6903F04003402B0CBF76
:104FA00001230023DBB2C7F8D4307B685B6C03F0CD
:104FB0000803002B03D1D7F8D430002B4FD07868EA
:104FC00000F0B2FC7B681B685B6903F04003402B78
:104FD00041D17B681B681433C7F89C30D7F89C30EC
:104FE00053E8003FC7F89830D7F8983023F04003D3
:104FF000C7F8D0307B681B681433D7F8D020C7F8C7
:10500000A820C7F8A430D7F8A410D7F8A82041E802
:105010000023C7F8A030D7F8A030002BD9D17B6887
:10502000DB6B002B13D07B68DB6B8A4A1A657B68CD
:10503000DB6B1846FDF780FD0346002B16D07B681E
:10504000DB6B1B6D7A68D26B104698470EE0786870
:1050500000F0CAF90AE0786800F0C6F906E078685E
:1050600000F0C2F97B6800225A648DE100BF8BE139
:105070007B681B6B012B40F06781D7F8E43003F0AD
:105080001003002B00F06081D7F8E03003F010032C
:10509000002B00F059810023BB607B681B681B68F4
:1050A000BB607B681B685B68BB60BB687B681B6818
:1050B0005B6903F04003402B40F0CE807B68DB6BE4
:1050C0001B685B68A7F8BE30B7F8BE30002B00F055
:1050D000A9807B689B8DB7F8BE209A4280F0A280A1
:1050E0007B68B7F8BE20DA857B68DB6BDB69B3F5DC
:1050F000807F00F088807B681B680C33C7F888309D
:10510000D7F8883053E8003FC7F88430D7F88430A8
:1051100023F48073C7F8B8307B681B680C33D7F86A
:10512000B820C7F89420C7F89030D7F89010D7F877
:10513000942041E80023C7F88C30D7F88C30002B3E
:10514000D9D17B681B6814337B677B6F53E8003FC2
:105150003B673B6F23F00103C7F8B4307B681B68E3
:105160001433D7F8B420C7F88020FB67F96FD7F85D
:10517000802041E80023BB67BB6F002BE1D17B6837
:105180001B6814333B663B6E53E8003FFB65FB6DC9
:1051900023F04003C7F8B0307B681B681433D7F89E
:1051A000B020FA66BB66B96EFA6E41E800237B66F2
:1051B0007B6E002BE3D17B68202283F842207B6842
:1051C00000221A637B681B680C33FB64FB6C53E89A
:1051D000003FBB64BB6C23F01003C7F8AC307B68A6
:1051E0001B680C33D7F8AC20BA657B65796DBA6D56
:1051F00041E800233B653B6D002BE3D17B68DB6B13
:105200001846FDF729FC7B6802225A637B689A8D59
:105210007B68DB8D9BB2D31A9BB21946786800F08D
:10522000F7F8B3E07B689B8DB7F8BE209A4240F058
:10523000AD807B68DB6BDB69B3F5807F40F0A680D7
:105240007B6802225A637B689B8D1946786800F060
:10525000DFF89BE0EF5900087B689A8D7B68DB8D57
:105260009BB2D31AA7F8CE307B68DB8D9BB2002BA4
:1052700000F08E80B7F8CE30002B00F089807B687C
:105280001B680C33BB63BB6B53E8003F7B637B6BDA
:1052900023F49073C7F8C8307B681B680C33D7F8C9
:1052A000C8207A643B64396C7A6C41E80023FB6364
:1052B000FB6B002BE3D17B681B6814337B627B6A3A
:1052C00053E8003F3B623B6A23F00103C7F8C43058
:1052D0007B681B681433D7F8C4203A63FB62F96A11
:1052E0003A6B41E80023BB62BB6A002BE3D17B68C9
:1052F000202283F842207B6800221A637B681B68A7
:105300000C333B613B6953E8003FFB60FB6823F0D3
:105310001003C7F8C0307B681B680C33D7F8C02077
:10532000FA61BB61B969FA6941E800237B617B6975
:10533000002BE3D17B6802225A63B7F8CE301946BE
:10534000786800F065F823E0D7F8E43003F08003D4
:10535000002B09D0D7F8E03003F08003002B03D0F6
:10536000786800F0B5FB14E0D7F8E43003F04003B0
:10537000002B0ED0D7F8E03003F04003002B08D00C
:10538000786800F0F5FB04E000BF02E000BF00E039
:1053900000BFE837BD4680BD80B483B000AF786001
:1053A00000BF0C37BD465DF8047B704780B483B006
:1053B00000AF786000BF0C37BD465DF8047B7047D6
:1053C00080B483B000AF786000BF0C37BD465DF895
:1053D000047B704780B483B000AF786000BF0C37A7
:1053E000BD465DF8047B704780B483B000AF786041
:1053F00000BF0C37BD465DF8047B704780B483B0B6
:1054000000AF786000BF0C37BD465DF8047B704785
:1054100080B483B000AF78600B467B8000BF0C3750
:10542000BD465DF8047B704780B590B000AF7860F2
:105430007B689B6BFB637B681B681B6803F4807352
:10544000002B37D1FB6B0022DA84FB6B1B68143313
:105450007B627B6A53E8003F3B623B6A23F0800338
:10546000BB63FB6B1B681433BA6B3A63FB62F96A6C
:105470003A6B41E80023BB62BB6A002BE5D1FB6BB2
:105480001B680C333B613B6953E8003FFB60FB68E2
:1054900043F040037B63FB6B1B680C337A6BFA6150
:1054A000BB61B969FA6941E800237B617B69002B24
:1054B000E5D102E0F86BFFF76FFF00BF4037BD4654
:1054C00080BD80B584B000AF78607B689B6BFB606B
:1054D000F868FFF76BFF00BF1037BD4680BD80B591
:1054E0009CB000AF78607B689B6BFB667B681B6839
:1054F0001B6803F48073002B72D1FB6E0022DA85E7
:10550000FB6E1B680C33FB64FB6C53E8003FBB6411
:10551000BB6C23F48073BB66FB6E1B680C33BA6EE6
:10552000BA657B65796DBA6D41E800233B653B6DDB
:10553000002BE5D1FB6E1B681433BB63BB6B53E8D8
:10554000003F7B637B6B23F001037B66FB6E1B6874
:1055500014337A6E7A643B64396C7A6C41E80023C8
:10556000FB63FB6B002BE5D1FB6E1B6814337B6286
:105570007B6A53E8003F3B623B6A23F040033B6693
:10558000FB6E1B6814333A6E3A63FB62F96A3A6B3E
:1055900041E80023BB62BB6A002BE5D1FB6E2022F1
:1055A00083F84220FB6E1B6B012B19D1FB6E1B682D
:1055B0000C333B613B6953E8003FFB60FB6823F021
:1055C0001003FB65FB6E1B680C33FA6DFA61BB615F
:1055D000B969FA6941E800237B617B69002BE5D159
:1055E000FB6E00225A63FB6E1B6B012B06D1FB6E18
:1055F0009B8D1946F86EFFF70BFF02E0F86EFFF780
:10560000DFFE00BF7037BD4680BD80B584B000AFFF
:1056100078607B689B6BFB60FB6801225A63FB68C8
:105620001B6B012B08D1FB689B8D5B089BB2194655
:10563000F868FFF7EDFE02E0F868FFF7CBFE00BF69
:105640001037BD4680BD80B584B000AF78600023C0
:10565000FB607B689B6BBB60BB681B685B6903F08E
:105660008003802B0CBF01230023DBB2FB60BB68EF
:1056700093F84130DBB2212B08D1FB68002B05D019
:10568000BB680022DA84B86800F026F9BB681B68A2
:105690005B6903F04003402B0CBF01230023DBB206
:1056A000FB60BB6893F84230DBB2222B08D1FB6869
:1056B000002B05D0BB680022DA85B86800F034F909
:1056C000BB685B6C43F01002BB685A64B868FFF7B4
:1056D0008BFE00BF1037BD4680BD80B586B000AFE1
:1056E000F860B9603B601346FB713BE03B6AB3F185
:1056F000FF3F37D0FDF724FE02463B68D31A3A6AD3
:105700009A4202D33B6A002B01D103233AE0FB68A3
:105710001B68DB6803F00403002B23D0BB68802BDD
:1057200020D0BB68402B1DD0FB681B681B6803F0B2
:105730000803082B16D100237B61FB681B681B68DC
:105740007B61FB681B685B687B617B69F86800F0C4
:10575000EBF8FB6808225A64FB68002283F84020BB
:1057600001230FE0FB681B681A68BB681340BA6826
:105770009A420CBF01230023DBB21A46FB799A42FE
:10578000B4D0002318461837BD4680BD80B598B008
:1057900000AFF860B9601346FB80BA68FB689A6294
:1057A000FB68FA889A85FB6800225A64FB6822220B
:1057B00083F84220FB68DB6B444ADA63FB68DB6BEF
:1057C000434A1A64FB68DB6B424ADA64FB68DB6BB2
:1057D00000221A6507F10803FB65FB68D86BFB68BC
:1057E0001B6804331946FB6D1A68FB88FDF7DCF86B
:1057F0000346002B08D0FB6810225A64FB68202265
:1058000083F8422001235DE000233B61FB681B68B5
:105810001B683B61FB681B685B683B613B69FB681D
:105820001B69002B19D0FB681B680C333B643B6C75
:1058300053E8003FFB63FB6B43F48073BB65FB687D
:105840001B680C33BA6DFA64BB64B96CFA6C41E83E
:1058500000237B647B6C002BE5D1FB681B68143351
:10586000FB62FB6A53E8003FBB62BB6A43F0010383
:105870007B65FB681B6814337A6DBA637B63796B55
:10588000BA6B41E800233B633B6B002BE5D1FB681F
:105890001B681433BB61BB6953E8003F7B617B69C4
:1058A00043F040033B65FB681B6814333A6D7A6232
:1058B0003B62396A7A6A41E80023FB61FB69002B8D
:1058C000E5D1002318466037BD4680BDDF5400088F
:1058D0000B5600084756000880B489B000AF7860C6
:1058E0007B681B680C33FB60FB6853E8003FBB60C0
:1058F000BB6823F0C003FB617B681B680C33FA694B
:10590000BA617B617969BA6941E800233B613B690F
:10591000002BE5D17B68202283F8412000BF24378B
:10592000BD465DF8047B704780B495B000AF7860E9
:105930007B681B680C337B637B6B53E8003F3B63E6
:105940003B6B23F49073FB647B681B680C33FA6C2D
:105950003A64FB63F96B3A6C41E80023BB63BB6BB1
:10596000002BE5D17B681B6814333B623B6A53E82C
:10597000003FFB61FB6923F00103BB647B681B688C
:105980001433BA6CFA62BB62B96AFA6A41E800235E
:105990007B627B6A002BE5D17B681B6B012B19D1E5
:1059A0007B681B680C33FB60FB6853E8003FBB60FF
:1059B000BB6823F010037B647B681B680C337A6C34
:1059C000BA617B617969BA6941E800233B613B694F
:1059D000002BE5D17B68202283F842207B680022DF
:1059E0001A6300BF5437BD465DF8047B704780B52D
:1059F00084B000AF78607B689B6BFB60FB68002223
:105A0000DA85F868FFF7F0FC00BF1037BD4680BDAF
:105A100080B584B000AF78607B689B6BFB60FB68EF
:105A20009B6B00221A65FB68DB6B002B04D0FB68C4
:105A3000DB6B1B6D002B17D1FB680022DA84FB683F
:105A40000022DA85FB6800225A64FB68202283F872
:105A50004120FB68202283F84220FB6800221A6361
:105A6000F868FFF7CBFC00E000BF1037BD4680BDF3
:105A700080B584B000AF78607B689B6BFB60FB688F
:105A8000DB6B00221A65FB689B6B002B04D0FB6864
:105A90009B6B1B6D002B17D1FB680022DA84FB681F
:105AA0000022DA85FB6800225A64FB68202283F812
:105AB0004120FB68202283F84220FB6800221A6301
:105AC000F868FFF79BFC00E000BF1037BD4680BDC3
:105AD00080B485B000AF78607B6893F84130DBB26A
